:100000000C9462000C948A000C948A000C948A0070
:100010000C948A000C948A000C948A000C948A0038
:100020000C948A000C948A000C948A000C948A0028
:100030000C948A000C948A000C948A000C948A0018
:100040000C94EA010C948A000C946D030C94A503A3
:100050000C948A000C948A000C948A000C948A00F8
:100060000C948A000C948A000000000024002700F1
:100070002A0000000000250028002B0000000000DE
:1000800023002600290004040404040404040202DA
:100090000202020203030303030301020408102007
:1000A0004080010204081020010204081020000012
:1000B0000007000201000003040600000000000029
:1000C00000005F0411241FBECFEFD8E0DEBFCDBF1C
:1000D00012E0A0E0B1E0E4EAFAE002C005900D927F
:1000E000AE31B107D9F712E0AEE1B2E001C01D9226
:1000F000A13DB107E1F710E0C4ECD0E004C02297C5
:10010000FE010E944C05C23CD107C9F70E94A00421
:100110000C9425050C9400008091C20161E00E94BE
:1001200074018FEA92E040E855E260E070E00E94DE
:10013000E0030895CF93C82F8091C20161E00E942F
:10014000B20160910C0270910D02CE3229F4882721
:1001500077FD8095982F0BC0CB01880F991F860FD4
:10016000971F9C01B901882777FD8095982F0E94E1
:1001700058028091C20160E00E94B20160910C02BD
:1001800070910D02882777FD8095982F0E94580264
:10019000CF910895CF93DF93C82FD92F02C00E942B
:1001A0009A0089918823D9F780910C0290910D02D1
:1001B000BC01660F771F680F791F882777FD809530
:1001C000982F0E945802DF91CF910895CF938FEA24
:1001D00092E00E94BA02009709F457C08FEA92E0B9
:1001E0000E94E902C82F8FEA92E060E071E00E946D
:1001F000F2048FEA92E06C2F0E94F5048FEA92E0FD
:100200006EE071E00E94F2048C2F81568A3148F42E
:10021000EC2FFF27E7FDF095EE0FFF1FEE5FFE4F7F
:100220000CC08C2F81548A3168F4EC2FFF27E7FD36
:10023000F095EE0FFF1FEE5BFE4F808191810E94D3
:10024000CA001DC08C2F80538A3048F4EC2FFF2742
:10025000E7FDF095EE0FFF1FE856FE4FEECFC032E0
:1002600071F460910C0270910D02660F771F660F9A
:10027000771F882777FD8095982F0E9458028FEA74
:1002800092E064E171E00E941205CF9108958330FD
:1002900071F0843028F48130A1F0823021F514C04F
:1002A0008630B1F08730D1F08430E9F404C0809119
:1002B00080008F7703C0809180008F7D80938000C5
:1002C000089584B58F7702C084B58F7D84BD08956D
:1002D0008091B0008F778093B00008958091B00036
:1002E0008F7D8093B0000895CF93DF9390E0FC0161
:1002F000E656FF4F44918A579F4FFC018491882313
:1003000071F190E0880F991FFC01E859FF4F25918A
:100310003491D9018E589F4FFC0125913491C22F01
:10032000D32F662349F49FB7F8948C91409584238A
:100330008C93888184230BC0623059F49FB7F89462
:100340008C91242F209582238C938881842B888301
:1003500005C09FB7F8948C91842B8C939FBFDF913D
:10036000CF9108950F931F93DF93CF930F92CDB743
:10037000DEB7282F30E0F901E255FF4F8491F901F3
:10038000E656FF4F14912A573F4FF901049100237D
:10039000D9F0882321F069830E9447016981E02F09
:1003A000F0E0EE0FFF1FEE58FF4F85919491DC01B6
:1003B0009FB7F894662321F48C911095812302C095
:1003C0008C91812B8C939FBF0F90CF91DF911F91C8
:1003D0000F9108951F920F920FB60F9211242F9331
:1003E0003F938F939F93AF93BF93809122029091FD
:1003F0002302A0912402B091250230912602019699
:10040000A11DB11D232F2D5F2D3720F02D570196F3
:10041000A11DB11D209326028093220290932302F6
:10042000A0932402B093250280911E0290911F0296
:10043000A0912002B09121020196A11DB11D8093CF
:100440001E0290931F02A0932002B0932102BF913D
:10045000AF919F918F913F912F910F900FBE0F9071
:100460001F9018959FB7F89420911E0230911F029B
:10047000409120025091210286B5A89B06C08F3F73
:1004800021F02F5F3F4F4F4F5F4F9FBF542F432FA0
:10049000322F2227280F311D411D511D82E0220FCE
:1004A000331F441F551F8A95D1F7B901CA0108951A
:1004B000EF92FF920F931F93CF93DF937B018C01F9
:1004C0000E943202EB010FC00E9432026C1B7D0BB6
:1004D00083E0683E780738F00894E108F1080109E4
:1004E0001109C851DC4FE114F1040105110561F750
:1004F000DF91CF911F910F91FF90EF900895789425
:1005000084B5826084BD84B5816084BD85B5826018
:1005100085BD85B5816085BDEEE6F0E080818160B6
:100520008083E1E8F0E010828081826080838081B6
:1005300081608083E0E8F0E0808181608083E1EB8E
:10054000F0E0808184608083E0EBF0E08081816076
:100550008083EAE7F0E0808184608083808182602C
:100560008083808181608083808180688083109215
:10057000C1000895FC0184859585FC01E05CFF4F76
:10058000208131818E5B9F4FFC0180819181281BEE
:10059000390B2F733070C9010895FC01848595854E
:1005A000FC01E05CFF4F40815181FC01EE5BFF4F9D
:1005B000208131814217530741F00190F081E02DF5
:1005C000E80FF91F208130E002C02FEF3FEFC90193
:1005D0000895FC0184859585FC01E05CFF4F408116
:1005E0005181FC01EE5BFF4F20813181421753079F
:1005F00071F0A081B181A80FB91F2C9180819181E8
:1006000001968F7390709183808330E002C02FEF4A
:100610003FEFC9010895FC0181A1882329F0A48935
:10062000B5898C9186FFFBCF11A20895FC01268528
:100630003785D901A05CBF4F8D919C9101968F7336
:100640009070D901AE5BBF4F4D915C9111978417AB
:100650009507D1F3D901A05CBF4F0D90BC91A02D9F
:10066000A20FB31F6C93A685B785A05CBF4F1196F0
:100670009C938E93A689B7892C9181E090E0078C9A
:1006800002C0880F991F0A94E2F7282B2C9381E06F
:1006900081A30488F589E02D80818064808381E0D6
:1006A00090E00895FB01E05CFF4F208131812F5FD6
:1006B0003F4F2F733070DB01AE5BBF4F4D915C91AC
:1006C00011972417350739F0A081B181A60FB71F04
:1006D0008C9331832083089508951F920F920FB653
:1006E0000F9211242F933F934F935F936F937F93B8
:1006F0008F939F93AF93BF93EF93FF938091C0002D
:1007000082FD07C08091C60067E272E00E9452033A
:1007100002C08091C600FF91EF91BF91AF919F9170
:100720008F917F916F915F914F913F912F910F909A
:100730000FBE0F901F9018958FEA92E00E94BA02A8
:10074000009711F00E946C0308951F920F920FB64C
:100750000F9211242F933F938F939F93EF93FF93C7
:100760002091AB023091AC028091AD029091AE022B
:100770002817390731F48091C1008F7D8093C10023
:1007800014C0E091AD02F091AE02E559FD4F208119
:100790008091AD029091AE0201968F73907090930C
:1007A000AE028093AD022093C600FF91EF919F911E
:1007B0008F913F912F910F900FBE0F901F90189522
:1007C000DF92EF92FF920F931F93CF93DF93EC0191
:1007D0007A018B01DD24D394403081EE580780E00C
:1007E000680780E0780749F4DD24EC89FD891082F0
:1007F00060E874E88EE190E00FC0EC89FD8981E04B
:1008000090E008A002C0880F991F0A94E2F7808345
:1008100060E079E08DE390E0A80197010E9428054F
:100820002150304040405040569547953795279588
:1008300080E12030380710F0DD20B1F6E889F98931
:100840003083EA89FB89208319A2EE89FF894081E0
:1008500081E090E09C010C8C02C0220F331F0A94AF
:10086000E2F7422B4083EE89FF8940819C010D8C89
:1008700002C0220F331F0A94E2F7422B4083EE8915
:10088000FF8940819C010E8C02C0220F331F0A9405
:10089000E2F7422B4083EE89FF8920810F8C02C052
:1008A000880F991F0A94E2F7809582238083DF9155
:1008B000CF911F910F91FF90EF90DF9008951092CC
:1008C000B2021092B10288EE93E0A0E0B0E0809313
:1008D000B3029093B402A093B502B093B602E1EBD9
:1008E000F2E082E192E09293829387E292E0958730
:1008F00084878BE692E09787868785EC90E0918BE2
:10090000808B84EC90E0938B828B80EC90E0958BD5
:10091000848B81EC90E0978B868B82EC90E0918FBA
:10092000808F86EC90E0938F828F84E0848F83E0C9
:10093000858F87E0868F85E0878F81E080A308958B
:10094000CF93DF930E947F020E948C00CCE9D3E01A
:100950000E94E6002097E1F30E949C03F9CFCF921A
:10096000DF92EF92FF920F931F93CF93DF936C016F
:100970007B018A01C0E0D0E00FC0D7016D917D01FD
:10098000D601ED91FC910190F081E02DC601099511
:10099000C80FD91F015010400115110571F7CE0184
:1009A000DF91CF911F910F91FF90EF90DF90CF904B
:1009B00008956115710591F0DB010D900020E9F7B4
:1009C000AD0141505040461B570BDC01ED91FC91AD
:1009D0000280F381E02D09959C0102C020E030E007
:1009E000C90108950E94D9040895DC01ED91FC919C
:1009F0000190F081E02D099508950F931F93CF93F7
:100A0000DF93EC016DE00E94F5048C01CE016AE0F9
:100A10000E94F504080F191FC801DF91CF911F91A3
:100A20000F9108950F931F93CF93DF93EC010E94D2
:100A3000D9048C01CE010E94FD04080F191FC801C2
:100A4000DF91CF911F910F910895F8940C94500568
:100A5000A1E21A2EAA1BBB1BFD010DC0AA1FBB1FC2
:100A6000EE1FFF1FA217B307E407F50720F0A21B34
:100A7000B30BE40BF50B661F771F881F991F1A94A1
:100A800069F760957095809590959B01AC01BD01CB
:100A9000CF010895EE0FFF1F0590F491E02D09940A
:040AA000F894FFCFF8
:100AA4005472616E736C6174696E67202200222037
:100AB4002E2E2E00646F6E652E002E2D002D2E2EF0
:100AC4002E002D2E2D2E002D2E2E002E002E2E2DFE
:100AD4002E002D2D2E002E2E2E2E002E2E002E2DED
:100AE4002D2D002D2E2D002E2D2E2E002D2D002DE2
:100AF4002E002D2D2D002E2D2D2E002D2D2E2D00D2
:100B04002E2D2E002E2E2E002D002E2E2D002E2EBC
:100B14002E2D002E2D2D002D2E2E2D002D2E2D2D83
:100B2400002D2D2E2E002D2D2D2D2D002E2D2D2D75
:100B34002D002E2E2D2D2D002E2E2E2D2D002E2E61
:100B44002E2E2D002E2E2E2E2E002D2E2E2E2E004D
:100B54002D2D2E2E2E002D2D2D2E2E002D2D2D2D16
:100B64002E000C001A011D01220127012B012D0169
:100B7400320136013B013E01430147014C014F0163
:100B8400520156015B016001640168016A016E0152
:100B9400730177017C01810186018C019201980126
:100BA4009E01A401AA01B001B601BC01C800000065
:0E0BB40000001603AF04BA02E902CD020B03E3
:00000001FF
