:100000000C9462000C948A000C948A000C948A0070
:100010000C948A000C948A000C948A000C948A0038
:100020000C948A000C948A000C948A000C948A0028
:100030000C948A000C948A000C948A000C948A0018
:100040000C9481030C948A000C9404050C943C05D8
:100050000C948A000C948A000C948A000C948A00F8
:100060000C948A000C948A000000000024002700F1
:100070002A0000000000250028002B0000000000DE
:1000800023002600290004040404040404040202DA
:100090000202020203030303030301020408102007
:1000A0004080010204081020010204081020000012
:1000B0000007000201000003040600000000000029
:1000C0000000F60511241FBECFEFD8E0DEBFCDBF84
:1000D00011E0A0E0B1E0EAEFF7E102C005900D9277
:1000E000A039B107D9F712E0A0E9B1E001C01D9233
:1000F000AF35B107E1F710E0C4ECD0E004C02297BF
:10010000FE010E94F70BC23CD107C9F70E943706D7
:100110000C9419090C9400008091790160E00E9410
:10012000E1028091770160E00E94E1021092990162
:10013000109298010DC0885F61E00E94E1028091F9
:10014000980190919901019690939901809398015B
:10015000809198019091990120917B0130917C01CF
:100160008217930744F38DE392E040E855E260E0A4
:1001700070E00E947705809177010E949302609160
:100180007D0170917E010E946E0B609394017093CB
:10019000950160939201709393018DE392E060E08A
:1001A00071E00E94C50660919401709195018DE304
:1001B00092E04AE050E00E94A60708951F93CF9373
:1001C000DF93182FEB0161E00E941F03BE01882717
:1001D00077FD8095982F0E94EF03812F60E00E94A9
:1001E0001F03DF91CF911F910895809177010E94A5
:1001F000930260917D0170917E010E946E0B70935D
:1002000095016093940164E670E080E090E00E94C4
:10021000EF0360919401709195018091920190910A
:1002200093016817790751F07093930160939201DD
:100230008DE392E04AE050E00E94A60780917901A8
:100240000E94570390939101809390018130910512
:1002500009F068C18DE392E062E171E00E94C50699
:1002600060919401709195018DE392E04AE050E035
:100270000E949C078DE392E06BE171E00E94E5062D
:1002800010929901109298018FC064E170E080E0B3
:1002900090E026E930E040E050E00E946406709370
:1002A00097016093960120917B0130917C012F5F33
:1002B0003F4F442737FD4095542F61E070E080E0C8
:1002C00090E00E94640670939B0160939A018DE315
:1002D00092E065E271E00E94C5066091980170911C
:1002E00099018DE392E04AE050E00E949C078DE383
:1002F00092E06AE271E00E94C50660919A017091F5
:100300009B018DE392E04AE050E00E949C078DE360
:1003100092E06FE271E00E94C506609196017091D3
:1003200097018DE392E04AE050E00E949C078DE344
:1003300092E065E371E00E94E50680919A01909158
:100340009B01609196017091970107960E94DE00D3
:10035000E0919A01F0919B01EE0FFF1FE656FE4FD0
:10036000808191810196918380836091A801709131
:10037000A9018091AA019091AB0120E030E040E812
:100380005FE30E941D096093A8017093A901809307
:10039000AA019093AB0180919801909199010196E7
:1003A000909399018093980120919801309199013F
:1003B0008091940190919501281739070CF465CF2D
:1003C0008DE392E068E371E00E94E5068DE392E040
:1003D00061E471E00E94C5064091A8015091A90115
:1003E0006091AA017091AB018DE392E022E030E0D0
:1003F0000E94C1088DE392E06AE471E00E94C506A4
:1004000010929901109298016BC08DE392E065E51E
:1004100071E00E94C50660919801709199016F5F2B
:100420007F4F8DE392E04AE050E00E949C078DE30D
:1004300092E067E571E00E94C506E0919801F091B5
:100440009901EE0FFF1FE456FE4F608171818DE32D
:1004500092E04AE050E00E949C078DE392E06BE559
:1004600071E00E94C506E0919801F0919901EE0FAC
:10047000FF1FE456FE4F60817181882777FD8095CC
:10048000982F0E94200A2091A8013091A901409143
:10049000AA015091AB010E94850920E030E048ECB0
:1004A00052E40E94D40AAB01BC018DE392E022E049
:1004B00030E00E94C1088DE392E06EE571E00E9499
:1004C000C5068DE392E061E671E00E94C506809169
:1004D00098019091990101969093990180939801C8
:1004E000209198013091990180917B0190917C013C
:1004F000281739070CF489CF8DE392E00E94D006CB
:1005000080E090E0DC018093A8019093A901A09382
:10051000AA01B093AB01ECE9F1E08CE0DF011D92A0
:100520008A95E9F708958E3008F08E508770909183
:100530007F019295990F990F907C982B90937C0056
:1005400080917A00806480937A0080917A0086FDA1
:10055000FCCF2091780030917900932F80E030E03B
:10056000282B392BC9010895833071F0843028F489
:100570008130A1F0823021F514C08630B1F087308F
:10058000D1F08430E9F404C0809180008F7703C0FB
:10059000809180008F7D80938000089584B58F774F
:1005A00002C084B58F7D84BD08958091B0008F779F
:1005B0008093B00008958091B0008F7D8093B0004B
:1005C0000895CF93DF9390E0FC01E656FF4F4491EE
:1005D0008A579F4FFC018491882371F190E0880F26
:1005E000991FFC01E859FF4F25913491D9018E588C
:1005F0009F4FFC0125913491C22FD32F662349F4DC
:100600009FB7F8948C91409584238C9388818423A0
:100610000BC0623059F49FB7F8948C91242F209529
:1006200082238C938881842B888305C09FB7F8949C
:100630008C91842B8C939FBFDF91CF9108950F9362
:100640001F93DF93CF930F92CDB7DEB7282F30E003
:10065000F901E255FF4F8491F901E656FF4F1491DD
:100660002A573F4FF90104910023D9F0882321F044
:1006700069830E94B4026981E02FF0E0EE0FFF1F52
:10068000EE58FF4F85919491DC019FB7F894662353
:1006900021F48C911095812302C08C91812B8C9335
:1006A0009FBF0F90CF91DF911F910F910895CF932E
:1006B000DF93282F30E0F901E255FF4F8491F901D3
:1006C000E656FF4FD4912A573F4FF901C491CC23EE
:1006D00091F0882311F00E94B402EC2FF0E0EE0FAD
:1006E000FF1FE458FF4F85919491DC018C918D237D
:1006F00021E030E011F420E030E0C901DF91CF913A
:1007000008951F920F920FB60F9211242F933F93CB
:100710008F939F93AF93BF938091B0019091B1015C
:10072000A091B201B091B3013091B4010196A11D25
:10073000B11D232F2D5F2D3720F02D570196A11DC0
:10074000B11D2093B4018093B0019093B101A093A7
:10075000B201B093B3018091AC019091AD01A09131
:10076000AE01B091AF010196A11DB11D8093AC0106
:100770009093AD01A093AE01B093AF01BF91AF9143
:100780009F918F913F912F910F900FBE0F901F90CF
:1007900018959FB7F8942091AC013091AD0140912C
:1007A000AE015091AF0186B5A89B06C08F3F21F0E6
:1007B0002F5F3F4F4F4F5F4F9FBF542F432F322F1D
:1007C0002227280F311D411D511D82E0220F331FAA
:1007D000441F551F8A95D1F7B901CA010895EF92B8
:1007E000FF920F931F93CF93DF937B018C010E94A5
:1007F000C903EB010FC00E94C9036C1B7D0B83E092
:10080000683E780738F00894E108F10801091109F9
:10081000C851DC4FE114F1040105110561F7DF91C6
:10082000CF911F910F91FF90EF900895789484B528
:10083000826084BD84B5816084BD85B5826085BDDC
:1008400085B5816085BDEEE6F0E0808181608083C2
:10085000E1E8F0E0108280818260808380818160A5
:100860008083E0E8F0E0808181608083E1EBF0E06C
:10087000808184608083E0EBF0E080818160808310
:10088000EAE7F0E0808184608083808182608083F9
:100890008081816080838081806880831092C10024
:1008A0000895FC0184859585FC01E05CFF4F208163
:1008B00031818E5B9F4FFC0180819181281B390B18
:1008C0002F733070C9010895FC0184859585FC0162
:1008D000E05CFF4F40815181FC01EE5BFF4F2081C6
:1008E00031814217530741F00190F081E02DE80F6C
:1008F000F91F208130E002C02FEF3FEFC9010895BA
:10090000FC0184859585FC01E05CFF4F40815181AD
:10091000FC01EE5BFF4F208131814217530771F0DC
:10092000A081B181A80FB91F2C918081918101967E
:100930008F7390709183808330E002C02FEF3FEF80
:10094000C9010895FC0181A1882329F0A489B589F2
:100950008C9186FFFBCF11A20895FC012685378577
:10096000D901A05CBF4F8D919C9101968F739070BF
:10097000D901AE5BBF4F4D915C91119784179507DC
:10098000D1F3D901A05CBF4F0D90BC91A02DA20F57
:10099000B31F6C93A685B785A05CBF4F11969C933F
:1009A0008E93A689B7892C9181E090E0078C02C0D4
:1009B000880F991F0A94E2F7282B2C9381E081A3DA
:1009C0000488F589E02D80818064808381E090E057
:1009D0000895FB01E05CFF4F208131812F5F3F4F85
:1009E0002F733070DB01AE5BBF4F4D915C9111975F
:1009F0002417350739F0A081B181A60FB71F8C935A
:100A000031832083089508951F920F920FB60F929D
:100A100011242F933F934F935F936F937F938F9303
:100A20009F93AF93BF93EF93FF938091C00082FD9C
:100A300007C08091C60065EB71E00E94E90402C026
:100A40008091C600FF91EF91BF91AF919F918F91DF
:100A50007F916F915F914F913F912F910F900FBEBA
:100A60000F901F9018958DE392E00E94510400971B
:100A700011F00E94030508951F920F920FB60F9276
:100A800011242F933F938F939F93EF93FF93209184
:100A9000390230913A0280913B0290913C02281732
:100AA000390731F48091C1008F7D8093C10014C05B
:100AB000E0913B02F0913C02E750FE4F2081809193
:100AC0003B0290913C0201968F73907090933C0290
:100AD00080933B022093C600FF91EF919F918F91ED
:100AE0003F912F910F900FBE0F901F901895DF929E
:100AF000EF92FF920F931F93CF93DF93EC017A0154
:100B00008B01DD24D394403081EE580780E06807E4
:100B100080E0780749F4DD24EC89FD89108260E8E3
:100B200074E88EE190E00FC0EC89FD8981E090E0EF
:100B300008A002C0880F991F0A94E2F7808360E042
:100B400079E08DE390E0A80197010E94810B21508C
:100B5000304040405040569547953795279580E165
:100B60002030380710F0DD20B1F6E889F9893083AC
:100B7000EA89FB89208319A2EE89FF89408181E0FF
:100B800090E09C010C8C02C0220F331F0A94E2F704
:100B9000422B4083EE89FF8940819C010D8C02C06D
:100BA000220F331F0A94E2F7422B4083EE89FF891C
:100BB00040819C010E8C02C0220F331F0A94E2F781
:100BC000422B4083EE89FF8920810F8C02C0880F61
:100BD000991F0A94E2F7809582238083DF91CF9159
:100BE0001F910F91FF90EF90DF90089510924002B7
:100BF00010923F0288EE93E0A0E0B0E080934102C3
:100C000090934202A0934302B0934402EFE3F2E0D8
:100C100084E891E09293829385EB91E095878487B5
:100C200089EF91E09787868785EC90E0918B808BA8
:100C300084EC90E0938B828B80EC90E0958B848B9E
:100C400081EC90E0978B868B82EC90E0918F808F87
:100C500086EC90E0938F828F84E0848F83E0858F91
:100C600087E0868F85E0878F81E080A30895CF930A
:100C7000DF930E9416040E948C00C3E3D5E00E941B
:100C8000F5002097E1F30E943305F9CFEF92FF9230
:100C90000F931F937B018C016115710581059105EF
:100CA00049F00E940B09A80197010E94A30B9B0128
:100CB000AC0103C020E030E0A901B901CA011F91D5
:100CC0000F91FF90EF900895EF92FF920F931F9373
:100CD0007B018C01621773078407950764F4CA01CE
:100CE000B9016E197F09800B910B0E944606E60E32
:100CF000F71E081F191FB701C8011F910F91FF9020
:100D0000EF900895CF92DF92EF92FF920F931F938F
:100D1000CF93DF936C017B018A01C0E0D0E00FC06C
:100D2000D7016D917D01D601ED91FC910190F0818B
:100D3000E02DC6010995C80FD91F015010400115BB
:100D4000110571F7CE01DF91CF911F910F91FF90A7
:100D5000EF90DF90CF9008956115710591F0DB0160
:100D60000D900020E9F7AD0141505040461B570B54
:100D7000DC01ED91FC910280F381E02D09959C014D
:100D800002C020E030E0C90108950E94AC06089539
:100D9000DC01ED91FC910190F081E02D0995089521
:100DA0000F931F93CF93DF93EC016DE00E94C80671
:100DB0008C01CE016AE00E94C806080F191FC80105
:100DC000DF91CF911F910F9108950F931F93CF93B0
:100DD000DF93EC010E94AC068C01CE010E94D0068C
:100DE000080F191FC801DF91CF911F910F9108952E
:100DF0008F929F92AF92BF92CF92DF92EF92FF922B
:100E00000F931F93DF93CF93CDB7DEB7A1970FB6A4
:100E1000F894DEBF0FBECDBF6C01042FE52FCB01D0
:100E2000122F19A2223008F41AE021E2E22EF12C4E
:100E3000EC0EFD1E812E9924AA24BB2403C0022F90
:100E4000E32FCA01602F7E2FA50194010E94810B20
:100E5000129F802D1124081B0894E108F1080A3024
:100E600014F4005D01C0095CF70100832115310510
:100E70004105510521F7C601B7010E94AC06A196B4
:100E80000FB6F894DEBF0FBECDBFCF91DF911F919B
:100E90000F91FF90EF90DF90CF90BF90AF909F9019
:100EA0008F9008952115310549F4DC01ED91FC91F5
:100EB0000190F081E02D642F099508950E94F806B5
:100EC0000895CF92DF92EF92FF920F931F93CF93EB
:100ED000DF93EC017A018B012115310541F4E881A2
:100EE000F9810190F081E02D642F09951AC02A3014
:100EF0003105A9F477FF12C06DE20E94C8066C01AB
:100F000044275527BA014E195F09600B710BCE01BA
:100F10002AE00E94F806C80ED91E04C02AE00E94EA
:100F2000F8066C01C601DF91CF911F910F91FF90E0
:100F3000EF90DF90CF9008959A01FB01AF016627F3
:100F400057FD6095762F0E94610708950F931F93B8
:100F5000CF93DF93EC019A01CB01AC01662757FDDB
:100F60006095762FCE010E9461078C01CE010E9410
:100F7000D006080F191FC801DF91CF911F910F9163
:100F800008956F927F928F929F92AF92BF92CF926D
:100F9000DF92EF92FF920F931F93CF93DF93EC01B9
:100FA0005A016B01822ECB01BA01A60195010E9464
:100FB000370B882321F0CE0165E671E01BC0860166
:100FC0007501E89417F9C801B7012FEF3FEF4FE71C
:100FD0005FE70E94370B882389F4C801B7012FEF20
:100FE0003FEF4FE75FE70E94810918163CF4CE01FE
:100FF00069E671E00E94AC065C01B3C0C601B501B0
:101000002FEF3FEF4FE75FE40E94D00A181654F02D
:10101000C601B5012FEF3FEF4FE75FEC0E9481095A
:1010200087FF04C0CE016DE671E0E4CFC601B501D3
:1010300020E030E0A9010E94810987FF0AC0CE01AB
:101040006DE20E94C8063C01D7FAD094D7F8D0943C
:1010500002C06624772410E050E040E030E02FE347
:1010600011C0DA01F9016B2F742F8F2F922F20E01E
:1010700030E040E251E40E948509562F472F382F77
:10108000292F1F5F181568F3C601B501DA01F901B0
:101090002B2F342F4F2F5E2F0E941D09962EC72E07
:1010A000D82EF92E0E94F209162FE72EA82E092F0E
:1010B0000E941E0A9B01AC01692D7C2D8D2D9F2D58
:1010C0000E941C09962EC72ED82EF92ECE01412F34
:1010D0005E2D6A2D702F2AE030E00E9452075C01DD
:1010E000A60CB71C8820D9F1CE0161E771E00E94FF
:1010F000AC06A80EB91E33C0692D7C2D8D2D9F2DF9
:1011000020E030E040E251E40E94D40AD62EC72EFF
:10111000982E792EA601652F742F0E94ED097B0170
:101120000027F7FC0095102FCE01B801A7012AE097
:1011300030E00E946107A80EB91EC801B7010E94E5
:10114000200A9B01AC01D6016B2F7A2F892D972D98
:101150000E941C09962EC72ED82EF92E8A9488201C
:1011600059F6C501DF91CF911F910F91FF90EF903C
:10117000DF90CF90BF90AF909F908F907F906F90B7
:1011800008950E94C1070895A0E0B0E0EAECF8E0FD
:101190000C94C60BEC01688179818A819B81611571
:1011A00071058105910521F464E279ED8BE597E005
:1011B0002DE133EF41E050E00E94A30B79018A0159
:1011C00027EA31E440E050E00E943B0B5B016C01F8
:1011D000C801B7012CEE34EF4FEF5FEF0E943B0BDD
:1011E0009B01AC012A0D3B1D4C1D5D1D57FF04C02A
:1011F0002150304040405048288339834A835B83E4
:101200005F77B901CA01CDB7DEB7EAE00C94E20B13
:101210000E94C408089583E791E00E94C4080895DD
:1012200060937301709374018093750190937601BC
:101230000895F8940C94FB0B5058BB27AA270ED0A6
:1012400075C166D130F06BD120F031F49F3F11F4BD
:101250001EF45BC10EF4E095E7FB51C1E92F77D195
:1012600080F3BA17620773078407950718F071F4C3
:101270009EF58FC10EF4E0950B2EBA2FA02D0B0119
:10128000B90190010C01CA01A0011124FF27591BCB
:1012900099F0593F50F4503E68F11A16F040A22FD1
:1012A000232F342F4427585FF3CF46953795279542
:1012B000A795F0405395C9F77EF41F16BA0B620B41
:1012C000730B840BBAF09150A1F0FF0FBB1F661F88
:1012D000771F881FC2F70EC0BA0F621F731F841FCB
:1012E00048F4879577956795B795F7959E3F08F0F1
:1012F000B3CF9395880F08F09927EE0F97958795B0
:101300000895D9D008F481E008950CD00FC107D119
:1013100040F0FED030F021F45F3F19F0F0C05111E1
:1013200039C1F3C014D198F39923C9F35523B1F30C
:10133000951B550BBB27AA2762177307840738F044
:101340009F5F5F4F220F331F441FAA1FA9F333D0A3
:101350000E2E3AF0E0E830D091505040E695001C57
:10136000CAF729D0FE2F27D0660F771F881FBB1F13
:10137000261737074807AB07B0E809F0BB0B802DED
:10138000BF01FF2793585F4F2AF09E3F510568F039
:10139000B6C000C15F3FECF3983EDCF386957795CD
:1013A0006795B795F7959F5FC9F7880F911D96953B
:1013B000879597F90895E1E0660F771F881FBB1F97
:1013C000621773078407BA0720F0621B730B840B44
:1013D000BA0BEE1F88F7E095089504D06894B11118
:1013E000D9C00895BCD088F09F5790F0B92F9927A5
:1013F000B751A0F0D1F0660F771F881F991F1AF020
:10140000BA95C9F712C0B13081F0C3D0B1E00895E8
:10141000C0C0672F782F8827B85F39F0B93FCCF369
:10142000869577956795B395D9F73EF49095809515
:10143000709561957F4F8F4F9F4F0895E89409C035
:1014400097FB3EF490958095709561957F4F8F4FF7
:101450009F4F9923A9F0F92F96E9BB279395F6950D
:10146000879577956795B795F111F8CFFAF4BB0F8B
:1014700011F460FF1BC06F5F7F4F8F4F9F4F16C0EF
:10148000882311F096E911C0772321F09EE8872F79
:10149000762F05C0662371F096E8862F70E060E035
:1014A0002AF09A95660F771F881FDAF7880F9695AE
:1014B000879597F90895990F0008550FAA0BE0E852
:1014C000FEEF16161706E807F907C0F01216130606
:1014D000E407F50798F0621B730B840B950B39F446
:1014E0000A2661F0232B242B252B21F408950A26AC
:1014F00009F4A140A6958FEF811D811D089597F9EC
:101500009F6780E870E060E008959FEF80EC0895A9
:1015100000240A94161617061806090608950024D2
:101520000A9412161306140605060895092E03944C
:10153000000C11F4882352F0BB0F40F4BF2B11F4C0
:1015400060FF04C06F5F7F4F8F4F9F4F089557FD1F
:101550009058440F551F59F05F3F71F04795880F21
:1015600097FB991F61F09F3F79F0879508951216B8
:1015700013061406551FF2CF4695F1DF08C0161664
:1015800017061806991FF1CF869571056105089415
:101590000895E894BB2766277727CB0197F908952C
:1015A0008ADF08F48FEF08950BD0C0CFB1DF28F0A9
:1015B000B6DF18F0952309F0A2CFA7CF1124EACF08
:1015C000C6DFA0F3959FD1F3950F50E0551F629FA2
:1015D000F001729FBB27F00DB11D639FAA27F00D8C
:1015E000B11DAA1F649F6627B00DA11D661F829FB3
:1015F0002227B00DA11D621F739FB00DA11D621F98
:10160000839FA00D611D221F749F3327A00D611DB4
:10161000231F849F600D211D822F762F6A2F112496
:101620009F5750408AF0E1F088234AF0EE0FFF1FE9
:10163000BB1F661F771F881F91505040A9F79E3F20
:10164000510570F05CCFA6CF5F3FECF3983EDCF322
:10165000869577956795B795F795E7959F5FC1F75D
:10166000FE2B880F911D9695879597F9089523DF96
:10167000880B990B0895629FD001739FF001829FA0
:10168000E00DF11D649FE00DF11D929FF00D839F11
:10169000F00D749FF00D659FF00D9927729FB00DAE
:1016A000E11DF91F639FB00DE11DF91FBD01CF01C1
:1016B00011240895AA1BBB1B51E107C0AA1FBB1F21
:1016C000A617B70710F0A61BB70B881F991F5A95CE
:1016D000A9F780959095BC01CD01089597FB092E3F
:1016E00007260AD077FD04D0E5DF06D000201AF4E3
:1016F000709561957F4F0895F6F7909581959F4F6E
:101700000895A1E21A2EAA1BBB1BFD010DC0AA1F42
:10171000BB1FEE1FFF1FA217B307E407F50720F05A
:10172000A21BB30BE40BF50B661F771F881F991FD5
:101730001A9469F760957095809590959B01AC011E
:10174000BD01CF01089597FB092E05260ED057FD48
:1017500004D0D7DF0AD0001C38F45095409530955E
:1017600021953F4F4F4F5F4F0895F6F79095809525
:10177000709561957F4F8F4F9F4F08952F923F92A5
:101780004F925F926F927F928F929F92AF92BF9291
:10179000CF92DF92EF92FF920F931F93CF93DF933D
:1017A000CDB7DEB7CA1BDB0B0FB6F894DEBF0FBE9A
:1017B000CDBF09942A88398848885F846E847D84E7
:1017C0008C849B84AA84B984C884DF80EE80FD80E9
:1017D0000C811B81AA81B981CE0FD11D0FB6F8945F
:1017E000DEBF0FBECDBFED010895EE0FFF1F0590C8
:0A17F000F491E02D0994F894FFCF66
:1017FA004C6F6F7073206469616C656420696E3A1E
:10180A00200052756E6E696E672000206C6F6F70D3
:10181A00732E2E2E002E2E2E5B005D3A20230020E2
:10182A00666F7220006D73002E2E2E646F6E652116
:10183A0000436F756E747320280020626C696E6BAA
:10184A0073293A20002300203A2000202800252965
:10185A0000207C20006E616E00696E66006F7666FD
:10186A00002E000100000005000700060004000128
:10187A0000000000AD048206510480046404A2043E
:00000001FF
