:100000000C9435000C945D000C945D000C945D0024
:100010000C945D000C945D000C945D000C945D00EC
:100020000C945D000C945D000C945D000C945D00DC
:100030000C945D000C945D000C945D000C945D00CC
:100040000C94C8010C945D000C944B030C94830336
:100050000C945D000C945D000C945D000C945D00AC
:100060000C945D000C945D003D0411241FBECFEF85
:10007000D8E0DEBFCDBF11E0A0E0B1E0E0E0F2E10A
:1000800002C005900D92AA34B107D9F712E0AAE494
:10009000B1E001C01D92A932B107E1F710E0CAE654
:1000A000D0E004C02297FE010E94FA08C836D107AA
:1000B000C9F70E947E040C94B4060C94000087E0FB
:1000C00092E040E855E260E070E00E94BE030895CF
:1000D0000F931F93CF93DF931092750110927401C9
:1000E00057C080914A010E94A701CC0FDD1FCC0FA1
:1000F000DD1FCC5ADE4F9C01B901882777FD809522
:10010000982F0E94BB0720E030E040EA50E40E94B4
:100110006F0820E030E048EC52E40E946F0820E0D5
:1001200030E040E85AE30E946F08688379838A834D
:100130009B83E0917401F0917501EE0FFF1FEE0FAC
:10014000FF1FEC5AFE4F60914C0170914D01809160
:100150004E0190914F0120813181428153810E9453
:10016000B80660934C0170934D0180934E019093BB
:100170004F0164E670E080E090E00E9436028091DA
:1001800074019091750101969093750180937401AB
:10019000C0917401D0917501C830D1050CF4A1CF84
:1001A00060914C0170914D0180914E0190914F01F1
:1001B00020E030E040E05EE30E946F088B01D82F22
:1001C000C92F9E01862F912FA32FB22F80934C0110
:1001D00090934D01A0934E01B0934F01602F712F6A
:1001E000832F922F20E030E040E151E40E946F081D
:1001F00020E030E040EA50E40E94200720E030E0B8
:1002000040E052E40E94B80660935001709351019F
:1002100080935201909353016091350170913601A2
:10022000882777FD8095982F0E94BB079B01AC0122
:10023000FE01602F712F8F2F9E2F0E946B081816C2
:100240005CF49E01602F712F832F922F0E948807EC
:1002500070933601609335016091370170913801D8
:10026000882777FD8095982F0E94BB079B01AC01E2
:10027000FE01602F712F8F2F9C2F0E941C0787FF7C
:100280000BC09E01602F712F832F9C2F0E94880727
:10029000709338016093370187E092E09E01402F10
:1002A000512F632F7C2F2AE030E00E94B10687E0B7
:1002B00092E060E071E00E94D004409150015091C2
:1002C0005101609152017091530187E092E02AE060
:1002D00030E00E94B10687E092E06BE071E00E949E
:1002E000D004609135017091360187E092E04AE0D8
:1002F00050E00E94A70587E092E06BE171E00E9468
:10030000D004609137017091380187E092E04AE0B3
:1003100050E00E94A70587E092E062E271E00E944F
:10032000F00480E090E0DC0180934C0190934D015B
:10033000A0934E01B0934F0168EE73E080E090E02F
:100340000E943602DF91CF911F910F9108958E3058
:1003500008F08E508770909139019295990F990FFE
:10036000907C982B90937C0080917A00806480939D
:100370007A0080917A0086FDFCCF20917800309140
:100380007900932F80E030E0282B392BC9010895A4
:100390001F920F920FB60F9211242F933F938F93BA
:1003A0009F93AF93BF9380917A0190917B01A0912D
:1003B0007C01B0917D0130917E010196A11DB11D9E
:1003C000232F2D5F2D3720F02D570196A11DB11D34
:1003D00020937E0180937A0190937B01A0937C010E
:1003E000B0937D018091760190917701A091780181
:1003F000B09179010196A11DB11D80937601909372
:100400007701A0937801B0937901BF91AF919F914B
:100410008F913F912F910F900FBE0F901F901895C5
:100420009FB7F8942091760130917701409178013F
:100430005091790186B5A89B06C08F3F21F02F5FB0
:100440003F4F4F4F5F4F9FBF542F432F322F2227D5
:10045000280F311D411D511D82E0220F331F441F03
:10046000551F8A95D1F7B901CA010895EF92FF92FD
:100470000F931F93CF93DF937B018C010E94100297
:10048000EB010FC00E9410026C1B7D0B83E0683EE5
:10049000780738F00894E108F10801091109C851FA
:1004A000DC4FE114F1040105110561F7DF91CF91F3
:1004B0001F910F91FF90EF900895789484B582601A
:1004C00084BD84B5816084BD85B5826085BD85B5F8
:1004D000816085BDEEE6F0E0808181608083E1E8A7
:1004E000F0E01082808182608083808181608083DF
:1004F000E0E8F0E0808181608083E1EBF0E08081E2
:1005000084608083E0EBF0E0808181608083EAE7B3
:10051000F0E080818460808380818260808380813C
:10052000816080838081806880831092C1000895FB
:10053000FC0184859585FC01E05CFF4F20813181C1
:100540008E5B9F4FFC0180819181281B390B2F739B
:100550003070C9010895FC0184859585FC01E05C3B
:10056000FF4F40815181FC01EE5BFF4F20813181C3
:100570004217530741F00190F081E02DE80FF91F79
:10058000208130E002C02FEF3FEFC9010895FC0148
:1005900084859585FC01E05CFF4F40815181FC0121
:1005A000EE5BFF4F208131814217530771F0A0812C
:1005B000B181A80FB91F2C918081918101968F7311
:1005C00090709183808330E002C02FEF3FEFC9012C
:1005D0000895FC0181A1882329F0A489B5898C9113
:1005E00086FFFBCF11A20895FC0126853785D9012E
:1005F000A05CBF4F8D919C9101968F739070D90133
:10060000AE5BBF4F4D915C91119784179507D1F365
:10061000D901A05CBF4F0D90BC91A02DA20FB31FBC
:100620006C93A685B785A05CBF4F11969C938E9363
:10063000A689B7892C9181E090E0078C02C0880FD1
:10064000991F0A94E2F7282B2C9381E081A3048858
:10065000F589E02D80818064808381E090E00895B9
:10066000FB01E05CFF4F208131812F5F3F4F2F73F3
:100670003070DB01AE5BBF4F4D915C911197241739
:10068000350739F0A081B181A60FB71F8C93318354
:100690002083089508951F920F920FB60F92112490
:1006A0002F933F934F935F936F937F938F939F937A
:1006B000AF93BF93EF93FF938091C00082FD07C07B
:1006C0008091C6006FE771E00E94300302C0809104
:1006D000C600FF91EF91BF91AF919F918F917F9154
:1006E0006F915F914F913F912F910F900FBE0F909F
:1006F0001F90189587E092E00E949802009711F0F1
:100700000E944A0308951F920F920FB60F92112470
:100710002F933F938F939F93EF93FF932091030227
:100720003091040280910502909106022817390742
:1007300031F48091C1008F7D8093C10014C0E0919D
:100740000502F0910602ED53FE4F208180910502D3
:100750009091060201968F73907090930602809399
:1007600005022093C600FF91EF919F918F913F91D9
:100770002F910F900FBE0F901F901895DF92EF9260
:10078000FF920F931F93CF93DF93EC017A018B01BC
:10079000DD24D394403081EE580780E0680780E084
:1007A000780749F4DD24EC89FD89108260E874E85B
:1007B0008EE190E00FC0EC89FD8981E090E008A017
:1007C00002C0880F991F0A94E2F7808360E079E005
:1007D0008DE390E0A80197010E94D6082150304097
:1007E00040405040569547953795279580E12030F9
:1007F000380710F0DD20B1F6E889F9893083EA89FD
:10080000FB89208319A2EE89FF89408181E090E075
:100810009C010C8C02C0220F331F0A94E2F7422B7A
:100820004083EE89FF8940819C010D8C02C0220F1C
:10083000331F0A94E2F7422B4083EE89FF894081FF
:100840009C010E8C02C0220F331F0A94E2F7422B48
:100850004083EE89FF8920810F8C02C0880F991F89
:100860000A94E2F7809582238083DF91CF911F91D4
:100870000F91FF90EF90DF90089510920A0210926E
:10088000090288EE93E0A0E0B0E080930B02909321
:100890000C02A0930D02B0930E02E9E0F2E08EE3A9
:1008A00091E0929382938FE791E09587848783EC20
:1008B00091E09787868785EC90E0918B808B84EC24
:1008C00090E0938B828B80EC90E0958B848B81EC15
:1008D00090E0978B868B82EC90E0918F808F86ECF6
:1008E00090E0938F828F84E0848F83E0858F87E010
:1008F000868F85E0878F81E080A30895CF93DF9373
:100900000E945D020E945F00CAE7D3E00E94680077
:100910002097E1F30E947A03F9CFCF92DF92EF9212
:10092000FF920F931F93CF93DF936C017B018A019A
:10093000C0E0D0E00FC0D7016D917D01D601ED91EF
:10094000FC910190F081E02DC6010995C80FD91FD7
:10095000015010400115110571F7CE01DF91CF91C3
:100960001F910F91FF90EF90DF90CF900895611548
:10097000710591F0DB010D900020E9F7AD014150C8
:100980005040461B570BDC01ED91FC910280F38136
:10099000E02D09959C0102C020E030E0C9010895D6
:1009A0000E94B7040895DC01ED91FC910190F08163
:1009B000E02D099508950F931F93CF93DF93EC01DA
:1009C0006DE00E94D3048C01CE016AE00E94D30442
:1009D000080F191FC801DF91CF911F910F91089542
:1009E0000F931F93CF93DF93EC010E94B7048C0108
:1009F000CE010E94DB04080F191FC801DF91CF91BF
:100A00001F910F9108958F929F92AF92BF92CF92B4
:100A1000DF92EF92FF920F931F93DF93CF93CDB7A7
:100A2000DEB7A1970FB6F894DEBF0FBECDBF6C0145
:100A3000042FE52FCB01122F19A2223008F41AE05F
:100A400021E2E22EF12CEC0EFD1E812E9924AA2427
:100A5000BB2403C0022FE32FCA01602F7E2FA50104
:100A600094010E94D608129F802D1124081B08941F
:100A7000E108F1080A3014F4005D01C0095CF701D7
:100A80000083211531054105510521F7C601B70144
:100A90000E94B704A1960FB6F894DEBF0FBECDBF7B
:100AA000CF91DF911F910F91FF90EF90DF90CF904A
:100AB000BF90AF909F908F9008952115310549F414
:100AC000DC01ED91FC910190F081E02D642F0995FE
:100AD00008950E9403050895CF92DF92EF92FF924E
:100AE0000F931F93CF93DF93EC017A018B012115B4
:100AF000310541F4E881F9810190F081E02D642F06
:100B000009951AC02A303105A9F477FF12C06DE2A9
:100B10000E94D3046C0144275527BA014E195F097E
:100B2000600B710BCE012AE00E940305C80ED91E8E
:100B300004C02AE00E9403056C01C601DF91CF9139
:100B40001F910F91FF90EF90DF90CF9008959A0141
:100B5000FB01AF01662757FD6095762F0E946C055B
:100B600008956F927F928F929F92AF92BF92CF9291
:100B7000DF92EF92FF920F931F93CF93DF93EC01DD
:100B80005A016B01822ECB01BA01A60195010E9488
:100B9000D208882321F0CE0167E271E01BC08601F4
:100BA0007501E89417F9C801B7012FEF3FEF4FE740
:100BB0005FE70E94D208882389F4C801B7012FEFAC
:100BC0003FEF4FE75FE70E941C0718163CF4CE0189
:100BD0006BE271E00E94B7045C01B3C0C601B501CD
:100BE0002FEF3FEF4FE75FE40E946B08181654F0B9
:100BF000C601B5012FEF3FEF4FE75FEC0E941C07E6
:100C000087FF04C0CE016FE271E0E4CFC601B501F9
:100C100020E030E0A9010E941C0787FF0AC0CE0136
:100C20006DE20E94D3043C01D7FAD094D7F8D09457
:100C300002C06624772410E050E040E030E02FE36B
:100C400011C0DA01F9016B2F742F8F2F922F20E042
:100C500030E040E251E40E942007562F472F382F02
:100C6000292F1F5F181568F3C601B501DA01F901D4
:100C70002B2F342F4F2F5E2F0E94B806962EC72E93
:100C8000D82EF92E0E948D07162FE72EA82E092F99
:100C90000E94B9079B01AC01692D7C2D8D2D9F2DE4
:100CA0000E94B706962EC72ED82EF92ECE01412FC0
:100CB0005E2D6A2D702F2AE030E00E945D055C01F8
:100CC000A60CB71C8820D9F1CE0163E371E00E9425
:100CD000B704A80EB91E33C0692D7C2D8D2D9F2D14
:100CE00020E030E040E251E40E946F08D62EC72E8B
:100CF000982E792EA601652F742F0E9488077B01FC
:100D00000027F7FC0095102FCE01B801A7012AE0BB
:100D100030E00E946C05A80EB91EC801B7010E9400
:100D2000BB079B01AC01D6016B2F7A2F892D972D24
:100D30000E94B706962EC72ED82EF92E8A948820A8
:100D400059F6C501DF91CF911F910F91FF90EF9060
:100D5000DF90CF90BF90AF909F908F907F906F90DB
:100D600008950E94B1050895F8940C94FE08505817
:100D7000BB27AA270ED075C166D130F06BD120F009
:100D800031F49F3F11F41EF45BC10EF4E095E7FBD4
:100D900051C1E92F77D180F3BA176207730784072F
:100DA000950718F071F49EF58FC10EF4E0950B2EA7
:100DB000BA2FA02D0B01B90190010C01CA01A001AD
:100DC0001124FF27591B99F0593F50F4503E68F108
:100DD0001A16F040A22F232F342F4427585FF3CF49
:100DE000469537952795A795F0405395C9F77EF41A
:100DF0001F16BA0B620B730B840BBAF09150A1F063
:100E0000FF0FBB1F661F771F881FC2F70EC0BA0FE8
:100E1000621F731F841F48F4879577956795B79570
:100E2000F7959E3F08F0B3CF9395880F08F0992768
:100E3000EE0F979587950895D9D008F481E008952D
:100E40000CD00FC107D140F0FED030F021F45F3F4D
:100E500019F0F0C0511139C1F3C014D198F399239E
:100E6000C9F35523B1F3951B550BBB27AA2762176E
:100E70007307840738F09F5F5F4F220F331F441FB3
:100E8000AA1FA9F333D00E2E3AF0E0E830D09150EB
:100E90005040E695001CCAF729D0FE2F27D0660FD8
:100EA000771F881FBB1F261737074807AB07B0E817
:100EB00009F0BB0B802DBF01FF2793585F4F2AF02D
:100EC0009E3F510568F0B6C000C15F3FECF3983E0D
:100ED000DCF3869577956795B795F7959F5FC9F78A
:100EE000880F911D9695879597F90895E1E0660F13
:100EF000771F881FBB1F621773078407BA0720F08C
:100F0000621B730B840BBA0BEE1F88F7E0950895F4
:100F100004D06894B111D9C00895BCD088F09F570F
:100F200090F0B92F9927B751A0F0D1F0660F771F35
:100F3000881F991F1AF0BA95C9F712C0B13081F015
:100F4000C3D0B1E00895C0C0672F782F8827B85F5D
:100F500039F0B93FCCF3869577956795B395D9F776
:100F60003EF490958095709561957F4F8F4F9F4F80
:100F70000895E89409C097FB3EF49095809570958C
:100F800061957F4F8F4F9F4F9923A9F0F92F96E9D5
:100F9000BB279395F695879577956795B795F1114A
:100FA000F8CFFAF4BB0F11F460FF1BC06F5F7F4FE7
:100FB0008F4F9F4F16C0882311F096E911C07723F9
:100FC00021F09EE8872F762F05C0662371F096E802
:100FD000862F70E060E02AF09A95660F771F881FD1
:100FE000DAF7880F9695879597F90895990F000875
:100FF000550FAA0BE0E8FEEF16161706E807F907EB
:10100000C0F012161306E407F50798F0621B730B85
:10101000840B950B39F40A2661F0232B242B252B06
:1010200021F408950A2609F4A140A6958FEF811DA9
:10103000811D089597F99F6780E870E060E008954A
:101040009FEF80EC089500240A94161617061806E0
:101050000906089500240A941216130614060506BC
:101060000895092E0394000C11F4882352F0BB0F4D
:1010700040F4BF2B11F460FF04C06F5F7F4F8F4FB0
:101080009F4F089557FD9058440F551F59F05F3FEB
:1010900071F04795880F97FB991F61F09F3F79F09A
:1010A00087950895121613061406551FF2CF46951C
:1010B000F1DF08C0161617061806991FF1CF86959E
:1010C0007105610508940895E894BB276627772782
:1010D000CB0197F908958ADF08F48FEF08950BD0BC
:1010E000C0CFB1DF28F0B6DF18F0952309F0A2CF0A
:1010F000A7CF1124EACFC6DFA0F3959FD1F3950FB8
:1011000050E0551F629FF001729FBB27F00DB11D8B
:10111000639FAA27F00DB11DAA1F649F6627B00D1B
:10112000A11D661F829F2227B00DA11D621F739F04
:10113000B00DA11D621F839FA00D611D221F749F12
:101140003327A00D611D231F849F600D211D822F59
:10115000762F6A2F11249F5750408AF0E1F08823A0
:101160004AF0EE0FFF1FBB1F661F771F881F9150AD
:101170005040A9F79E3F510570F05CCFA6CF5F3F6E
:10118000ECF3983EDCF3869577956795B795F795E0
:10119000E7959F5FC1F7FE2B880F911D9695879568
:1011A00097F9089523DF880B990B0895A1E21A2E71
:1011B000AA1BBB1BFD010DC0AA1FBB1FEE1FFF1FFB
:1011C000A217B307E407F50720F0A21BB30BE40B4B
:1011D000F50B661F771F881F991F1A9469F7609592
:1011E0007095809590959B01AC01BD01CF0108954C
:1011F000EE0FFF1F0590F491E02D0994F894FFCFB6
:101200002043656C736975732C20002066616872D9
:10121000656E68656974202D3E2000204D61782C34
:101220002000204D696E006E616E00696E66006F71
:101230007666002E009CFF64000100000000F402AE
:0A1240008D049802C702AB02E90218
:00000001FF
