:100000000C9462000C948A000C948A000C948A0070
:100010000C948A000C948A000C948A000C948A0038
:100020000C948A000C948A000C948A000C948A0028
:100030000C948A000C948A000C948A000C948A0018
:100040000C94A7020C948A000C94DA040C94160504
:100050000C948A000C948A000C948A000C948A00F8
:100060000C948A000C948A00000000070002010032
:100070000003040600000000000000000102040864
:100080001020408001020408102001020408102002
:10009000040404040404040402020202020203032E
:1000A00003030303000000002300260029000000D2
:1000B0000000250028002B0000000000240027007D
:1000C0002A00D10511241FBECFEFD8E0DEBFCDBF7F
:1000D00011E0A0E0B1E0E8EBF6E102C005900D927E
:1000E000AE37B107D9F712E0AEE7B1E001C01D921B
:1000F000AA34B107E1F710E0C4ECD0E004C02297C5
:10010000FE010E94560BC23CD107C9F70E9421068E
:100110000C94B5080C94000060E0809108010E94E6
:10012000A60360E080910A010E94A603109291014B
:10013000109290010DC061E0885F0E94A60380913B
:10014000900190919101019690939101809390017B
:1001500080919001909191012091060130910701C9
:100160008217930744F340E855E260E070E083EAC9
:1001700091E00E94510580910A010E9486026091DF
:100180000401709105010E94F60A60939401709336
:10019000950160939601709397016DE071E083EA99
:1001A00091E00E94660660919401709195014AE089
:1001B00050E083EA91E00C9448071F93CF93DF93BC
:1001C000182FEB0161E00E94DE03BE01882777FD56
:1001D0008095982F0E941B0360E0812FDF91CF91C3
:1001E0001F910C94DE0380910A010E9486026091A7
:1001F0000401709105010E94F60A709395016093C5
:10020000940164E670E080E090E00E941B0360913E
:1002100094017091950180919601909197016817D2
:10022000790751F070939701609396014AE050E08E
:1002300083EA91E00E944807809108010E9415041A
:100240009093990180939801019709F05EC16FE145
:1002500071E083EA91E00E946606609194017091DA
:1002600095014AE050E083EA91E00E94400768E28D
:1002700071E083EA91E00E9485061092910110924C
:1002800090018FC026E930E040E050E064E170E08A
:1002900080E090E00E94390870939301609392018E
:1002A00020910601309107012F5F3F4F442737FD12
:1002B0004095542F61E070E080E090E00E943908A2
:1002C00070938F0160938E0162E371E083EA91E0A5
:1002D0000E94660660919001709191014AE050E0A1
:1002E00083EA91E00E94400767E371E083EA91E0CE
:1002F0000E94660660918E0170918F014AE050E085
:1003000083EA91E00E9440076CE371E083EA91E0A8
:100310000E94660660919201709193014AE050E05C
:1003200083EA91E00E94400762E471E083EA91E091
:100330000E948506609192017091930180918E01D7
:1003400090918F0107960E94DD00E0918E01F0915F
:100350008F01EE0FFF1FE058FE4F808191810196C3
:100360009183808320E030E040E85FE360917E018C
:1003700070917F0180918001909181010E94B90864
:1003800060937E0170937F0180938001909381013F
:1003900080919001909191010196909391018093A9
:1003A0009001209190013091910180919401909160
:1003B0009501281739070CF465CF65E471E083EAED
:1003C00091E00E9485066EE471E083EA91E00E946C
:1003D000660640917E0150917F016091800170918D
:1003E000810122E030E083EA91E00E940B0867E59A
:1003F00071E083EA91E00E946606109291011092EA
:1004000090016BC06AE371E083EA91E00E946606A6
:1004100060919001709191016F5F7F4F4AE050E0D1
:1004200083EA91E00E94400762E671E083EA91E08E
:100430000E946606E0919001F0919101EE0FFF1F7E
:10044000EE57FE4F608171814AE050E083EA91E00F
:100450000E94400764E571E083EA91E00E9466062D
:10046000E0919001F0919101EE0FFF1FEE57FE4FCA
:1004700060817181882777FD8095982F0E94BC0943
:1004800020917E0130917F01409180015091810146
:100490000E94210920E030E048EC52E40E946C0AFE
:1004A000AB01BC0122E030E083EA91E00E940B083E
:1004B00066E671E083EA91E00E94660669E671E013
:1004C00083EA91E00E9466068091900190919101EB
:1004D0000196909391018093900120919001309129
:1004E00091018091060190910701281739070CF4BA
:1004F00089CF83EA91E00E946F0610927E011092EC
:100500007F01109280011092810108958E3008F0D1
:100510008E50877020910C0140E4249F900111249B
:10052000822B80937C0080917A00806480937A0093
:1005300080917A0086FDFCCF20917800309179007F
:10054000932F80E0AC01422B9A01C90108951F92BC
:100550000F920FB60F9211242F933F938F939F9377
:10056000AF93BF9380919A0190919B01A0919C01C0
:10057000B0919D013091A201232F2D5F2D3720F4E2
:100580000196A11DB11D05C0232F2A570296A11D5A
:10059000B11D2093A20180939A0190939B01A09397
:1005A0009C01B0939D0180919E0190919F01A0912B
:1005B000A001B091A1010196A11DB11D80939E01E2
:1005C00090939F01A093A001B093A101BF91AF911F
:1005D0009F918F913F912F910F900FBE0F901F9081
:1005E00018950F931F939FB7F89400919E01109157
:1005F0009F012091A0013091A10186B5A89B06C062
:100600008F3F21F00F5F1F4F2F4F3F4F9FBF322F64
:10061000212F102F0027080F111D211D311D42E031
:10062000000F111F221F331F4A95D1F7B801C901CE
:100630001F910F910895CF92DF92EF92FF92CF9387
:10064000DF936B017C010E94F102EB010EC00E945E
:10065000F1026C1B7D0B683E734038F081E0C81AD4
:10066000D108E108F108C851DC4FC114D104E104FC
:10067000F10469F7DF91CF91FF90EF90DF90CF9079
:100680000895789484B5826084BD84B5816084BD0A
:1006900085B5826085BD85B5816085BDEEE6F0E0FB
:1006A000808181608083E1E8F0E010828081826057
:1006B0008083808181608083E0E8F0E080818160D8
:1006C0008083E1EBF0E0808184608083E0EBF0E008
:1006D000808181608083EAE7F0E0808184608083AC
:1006E0008081826080838081816080838081806856
:1006F00080831092C1000895833069F028F481301E
:10070000A1F0823011F514C08630B1F08730C1F00D
:100710008430D9F404C0809180008F7703C0809129
:1007200080008F7D80938000089584B58F7702C00C
:1007300084B58F7D84BD08958091B0008F7703C00C
:100740008091B0008F7D8093B0000895CF93DF93A8
:1007500090E0FC01E458FF4F4491FC01E057FF4F4B
:100760008491882341F190E0880F991FFC01E8549F
:10077000FF4F25913491D90182559F4FFC018591FE
:100780009491C82FD92F9FB7F8948C91611106C00E
:10079000409584238C938881842308C0623041F47F
:1007A000242F209582238C938881842B888302C0F8
:1007B000842B8C939FBFDF91CF9108950F931F934C
:1007C000CF93DF931F92CDB7DEB7282F30E0F9012A
:1007D000E859FF4F8491F901E458FF4F1491F90152
:1007E000E057FF4F04910023D1F0882321F0698363
:1007F0000E947C036981E02FF0E0EE0FFF1FE255BD
:10080000FF4F85919491DC019FB7F8948C91611111
:1008100003C01095812301C0812B8C939FBF0F9043
:10082000DF91CF911F910F910895CF93DF93282FE0
:1008300030E0F901E859FF4F8491F901E458FF4F86
:10084000D491F901E057FF4FC491CC2389F0811175
:100850000E947C03EC2FF0E0EE0FFF1FEC55FF4FE2
:1008600085919491DC018C918D2321E030E011F48D
:1008700020E030E0C901DF91CF910895FC0184852B
:100880009585FC01E05CFF4F20813181FC01EE5B2E
:10089000FF4F80819181281B390B2F733327C901AA
:1008A0000895FC0184859585FC01E05CFF4F408143
:1008B0005181FC01EE5BFF4F2081318142175307CC
:1008C00041F00190F081E02DE80FF91F208130E028
:1008D00002C02FEF3FEFC9010895FC018485958583
:1008E000FC01E05CFF4F40815181FC01EE5BFF4F5A
:1008F000208131814217530781F0A081B181A80F77
:10090000B91F8C91208131812F5F3F4F2F73332787
:1009100031832083282F30E002C02FEF3FEFC90141
:100920000895FC0186859785FC01E05CFF4FDC01A2
:10093000AE5BBF4F408151812D913C911197421781
:100940005307C1F70895CF93DF93FC018685978500
:10095000DC01A05CBF4F2D913C9111972F5F3F4F61
:100960002F733327EC01CE5BDF4F48815981241769
:100970003507D9F30D90BC91A02DA80FB91F6C932A
:10098000A685B785A05CBF4F11963C932E93A68990
:10099000B7892C9181E090E0058C02C0880F991FE7
:1009A0000A94E2F7282B2C9381E090E0DF91CF911D
:1009B000089508951F920F920FB60F9211242F934E
:1009C0003F934F938F939F93EF93FF934091C60074
:1009D000809146029091470201968F73992720914A
:1009E0004802309149028217930759F0E09146027C
:1009F000F0914702EA5FFD4F408390934702809356
:100A00004602FF91EF919F918F914F913F912F91CE
:100A10000F900FBE0F901F90189583EA91E00E94EF
:100A20003E04892B11F00C94D90408951F920F9263
:100A30000FB60F9211242F933F938F939F93EF93B1
:100A4000FF93209102023091030280910402909161
:100A500005022817390731F48091C1008F7D8093FA
:100A6000C10014C0E0910402F0910502EE53FE4F64
:100A70002081809104029091050201968F7399273D
:100A800090930502809304022093C600FF91EF919A
:100A90009F918F913F912F910F900FBE0F901F90BC
:100AA0001895CF92DF92EF92FF92CF93DF93EC01F4
:100AB0006A017B01411581EE580761057105F9F066
:100AC000EC89FD8981E090E00E8C02C0880F991FAF
:100AD0000A94E2F7808360E079E08DE390E0A7017B
:100AE00096010E940A0B215031094109510956957E
:100AF000479537952795211580E1380798F0EC89BF
:100B0000FD89108260E874E88EE190E0A70196010B
:100B10000E940A0B21503109410951095695479508
:100B200037952795E889F9893083EA89FB892083FD
:100B3000EE89FF89408181E090E09C010A8C02C02F
:100B4000220F331F0A94E2F7422B4083EE89FF897C
:100B500040819C010B8C02C0220F331F0A94E2F7E4
:100B6000422B4083EE89FF8940819C010C8C02C09E
:100B7000220F331F0A94E2F7422B4083EE89FF894C
:100B800020810D8C02C0880F991F0A94E2F780958E
:100B900082238083DF91CF91FF90EF90DF90CF9001
:100BA00008951092A6011092A50188EE93E0A0E0AE
:100BB000B0E08093A7019093A801A093A901B093FE
:100BC000AA0181E791E09093A4018093A30186E0BC
:100BD00092E09093B0018093AF0182EC91E090930A
:100BE000B2018093B10185EC90E09093B4018093C1
:100BF000B30184EC90E09093B6018093B50180EC52
:100C000090E09093B8018093B70181EC90E09093CD
:100C1000BA018093B90186EC90E09093BC01809377
:100C2000BB0184E08093BD0183E08093BE0187E037
:100C30008093BF0185E08093C00181E08093C10172
:100C400008950E9441030E948C00CDE0D5E00E94EF
:100C5000F3002097E1F30E940D05F9CFCF92DF92C8
:100C6000EF92FF920F931F93CF93DF936C01EB01F1
:100C70007A01E60EF71E00E010E00BC06991D60184
:100C8000ED91FC910190F081E02DC6010995080FCE
:100C9000191FCE15DF0591F7C801DF91CF911F9184
:100CA0000F91FF90EF90DF90CF900895DB010D90B2
:100CB0000020E9F7AD0141505109461B570BDC01FB
:100CC000ED91FC910280F381E02D09940C9456067D
:100CD000DC01ED91FC910190F081E02D09940F93DE
:100CE0001F93CF93DF93EC016DE00E9468068C01A7
:100CF0006AE0CE010E9468069C01200F311FC901E5
:100D0000DF91CF911F910F9108950F931F93CF9370
:100D1000DF93EC010E9456068C01CE010E946F0603
:100D20009801280F391FC901DF91CF911F910F91B1
:100D300008954F925F926F927F929F92AF92BF926F
:100D4000CF92DF92EF92FF920F931F93CF93DF9397
:100D5000CDB7DEB7A1970FB6F894DEBF0FBECDBFFB
:100D60005C016A017B01922E19A281E0821710F0CA
:100D70008AE0982E8E010F5D1F4F492C512C612C5B
:100D8000712CC701B601A30192010E940A0B8C2DA0
:100D9000929E80191124015011098A3014F4805D4B
:100DA00001C0895CF801808369017A01C114D10412
:100DB000E104F10431F7B801C5010E945606A1967D
:100DC0000FB6F894DEBF0FBECDBFDF91CF911F915C
:100DD0000F91FF90EF90DF90CF90BF90AF909F90DA
:100DE0007F906F905F904F900895CF92DF92EF9237
:100DF000FF920F931F93CF93DF93EC016A017B0166
:100E00002115310579F4E881F9810190F081E02D17
:100E1000642FDF91CF911F910F91FF90EF90DF90A2
:100E2000CF9009942A30310519F477FD0EC02AE0DD
:100E3000B701A601CE01DF91CF911F910F91FF90D5
:100E4000EF90DF90CF900C9499066DE20E946806B7
:100E50008C0144275527BA014C195D096E097F0999
:100E60002AE0CE010E949906080F191FC801DF91E0
:100E7000CF911F910F91FF90EF90DF90CF90089549
:100E80009A01AB01662757FD6095762F0C94F50605
:100E90000F931F93CF93DF93EC019A01AB01662769
:100EA00057FD6095762F0E94F5068C01CE010E94B9
:100EB0006F069801280F391FC901DF91CF911F914B
:100EC0000F9108957F928F929F92AF92BF92CF928F
:100ED000DF92EF92FF920F931F93CF93DF938C01DA
:100EE0004A015B01F22E20E030E0A901C501B40106
:100EF0000E941D0987FF0AC06DE2C8010E946806B2
:100F0000EC01B7FAB094B7F8B09402C0C0E0D0E0FA
:100F1000E12C60E070E080E09FE307C020E030E07B
:100F200040E251E40E942109E394EF10F7CF262F0D
:100F3000372F482F592FC501B4010E94B908762ECA
:100F4000872E982EA92E0E948E09B62EC72ED82E37
:100F5000E92E0E94BA099B01AC01672D782D892DDD
:100F60009A2D0E94B808A62E972E882E792E2AE058
:100F70004B2D5C2D6D2D7E2DC8010E949906C80F4A
:100F8000D91FFF20B9F160E371E0C8010E94560645
:100F9000C80FD91F2FC020E030E040E251E46A2D95
:100FA000792D882D972D0E946C0A762EC72ED82E6B
:100FB000E92E0E9489094B01AA2497FCA094BA2C1F
:100FC0002AE030E0B501A401C8010E94F506C80F6F
:100FD000D91FC501B4010E94BC099B01AC01672D5A
:100FE0007C2D8D2D9E2D0E94B808A62E972E882E22
:100FF000792EFA94F110CFCFCE01DF91CF911F91CE
:101000000F91FF90EF90DF90CF90BF90AF909F90A7
:101010008F907F9008950C9462070F931F93CF9346
:10102000DF9300D000D0CDB7DEB79B01AC016115D6
:1010300071058105910579F069833A834B835C835F
:101040000E94A70829813A814B815C810E942C0B68
:101050008B019C0103C000E010E09801B801C901B8
:101060000F900F900F900F90DF91CF911F910F91E4
:101070000895CF92DF92EF92FF926B017C0162178D
:1010800073078407950764F4CA01B9016C197D09D7
:101090008E099F090E940D08C60ED71EE81EF91E74
:1010A000B601C701FF90EF90DF90CF9008958F9227
:1010B0009F92AF92BF92CF92DF92EF92FF92CF9327
:1010C000DF93EC01688179818A819B8161157105CB
:1010D0008105910521F464E279ED8BE597E02DE13E
:1010E00033EF41E050E00E942C0B49015A019B0173
:1010F000AC01A7EAB1E40E94CF0A6B017C01ACEE1F
:10110000B4EFA50194010E94DD0AC60ED71EE81EA9
:10111000F91EF7FE06C081E0C81AD108E10880E890
:10112000F80AC882D982EA82FB82E894F7F8B6010D
:10113000C701DF91CF91FF90EF90DF90CF90BF90EC
:10114000AF909F908F9008950E945708089580E077
:1011500091E00E9457080895609300017093010187
:1011600080930201909303010895F8940C945A0B14
:101170005058BB27AA270ED075C166D130F06BD16D
:1011800020F031F49F3F11F41EF45BC10EF4E095A2
:10119000E7FB51C1E92F77D180F3BA1762077307D4
:1011A0008407950718F071F49EF58FC10EF4E09551
:1011B0000B2EBA2FA02D0B01B90190010C01CA0111
:1011C000A0011124FF27591B99F0593F50F4503EBC
:1011D00068F11A16F040A22F232F342F4427585FAE
:1011E000F3CF469537952795A795F0405395C9F7C6
:1011F0007EF41F16BA0B620B730B840BBAF091507E
:10120000A1F0FF0FBB1F661F771F881FC2F70EC01C
:10121000BA0F621F731F841F48F4879577956795EF
:10122000B795F7959E3F08F0B3CF9395880F08F0D8
:101230009927EE0F979587950895D9D008F481E006
:1012400008950CD00FC107D140F0FED030F021F44A
:101250005F3F19F0F0C0511139C1F3C014D198F3B8
:101260009923C9F35523B1F3951B550BBB27AA2727
:1012700062177307840738F09F5F5F4F220F331F99
:10128000441FAA1FA9F333D00E2E3AF0E0E830D065
:1012900091505040E695001CCAF729D0FE2F27D068
:1012A000660F771F881FBB1F261737074807AB0736
:1012B000B0E809F0BB0B802DBF01FF2793585F4FAB
:1012C0002AF09E3F510568F0B6C000C15F3FECF3C5
:1012D000983EDCF3869577956795B795F7959F5F70
:1012E000C9F7880F911D9695879597F90895E1E0C4
:1012F000660F771F881FBB1F621773078407BA0723
:1013000020F0621B730B840BBA0BEE1F88F7E0957D
:10131000089504D06894B111D9C00895BCD088F064
:101320009F5790F0B92F9927B751A0F0D1F0660FD1
:10133000771F881F991F1AF0BA95C9F712C0B130EC
:1013400081F0C3D0B1E00895C0C0672F782F8827FF
:10135000B85F39F0B93FCCF3869577956795B3952B
:10136000D9F73EF490958095709561957F4F8F4F9A
:101370009F4F0895E89409C097FB3EF4909580959F
:10138000709561957F4F8F4F9F4F9923A9F0F92F4B
:1013900096E9BB279395F695879577956795B795C9
:1013A000F111F8CFFAF4BB0F11F460FF1BC06F5FAF
:1013B0007F4F8F4F9F4F16C0882311F096E911C0C1
:1013C000772321F09EE8872F762F05C0662371F0E2
:1013D00096E8862F70E060E02AF09A95660F771FF6
:1013E000881FDAF7880F9695879597F90895990FD2
:1013F0000008550FAA0BE0E8FEEF16161706E807DF
:10140000F907C0F012161306E407F50798F0621BFF
:10141000730B840B950B39F40A2661F0232B242BD4
:10142000252B21F408950A2609F4A140A6958FEFF3
:10143000811D811D089597F99F6780E870E060E045
:1014400008959FEF80EC089500240A94161617065D
:1014500018060906089500240A94121613061406A5
:1014600005060895092E0394000C11F4882352F008
:10147000BB0F40F4BF2B11F460FF04C06F5F7F4FC0
:101480008F4F9F4F089557FD9058440F551F59F0A7
:101490005F3F71F04795880F97FB991F61F09F3F61
:1014A00079F087950895121613061406551FF2CF8A
:1014B0004695F1DF08C0161617061806991FF1CFDA
:1014C00086957105610508940895E894BB27662701
:1014D0007727CB0197F908950BD0C4CFB5DF28F05B
:1014E000BADF18F0952309F0A6CFABCF1124EECFC9
:1014F000CADFA0F3959FD1F3950F50E0551F629F6F
:10150000F001729FBB27F00DB11D639FAA27F00D5C
:10151000B11DAA1F649F6627B00DA11D661F829F83
:101520002227B00DA11D621F739FB00DA11D621F68
:10153000839FA00D611D221F749F3327A00D611D85
:10154000231F849F600D211D822F762F6A2F112467
:101550009F5750408AF0E1F088234AF0EE0FFF1FBA
:10156000BB1F661F771F881F91505040A9F79E3FF1
:10157000510570F060CFAACF5F3FECF3983EDCF3EB
:10158000869577956795B795F795E7959F5FC1F72E
:10159000FE2B880F911D9695879597F908950E94C7
:1015A000480BA59F900DB49F900DA49F800D911D99
:1015B00011240895B7FF0C94CF0A0E94CF0A821B12
:1015C000930B0895AA1BBB1B51E107C0AA1FBB1FA9
:1015D000A617B70710F0A61BB70B881F991F5A95BF
:1015E000A9F780959095BC01CD01089597FB072E32
:1015F00016F4009407D077FD09D00E94E20A07FC98
:1016000005D03EF4909581959F4F08957095619512
:101610007F4F0895A1E21A2EAA1BBB1BFD010DC02E
:10162000AA1FBB1FEE1FFF1FA217B307E407F50792
:1016300020F0A21BB30BE40BF50B661F771F881F6E
:10164000991F1A9469F760957095809590959B0104
:10165000AC01BD01CF010895052E97FB16F400944F
:1016600007D057FD0DD00E940A0B07FC09D07EF46D
:1016700090958095709561957F4F8F4F9F4F0895FE
:1016800050954095309521953F4F4F4F5F4F0895AE
:10169000A29FB001B39FC001A39F01D0B29F700D64
:1016A000811D1124911D0895EE0FFF1F0590F491E7
:0816B000E02D0994F894FFCF2E
:1016B800010000000400060007000500014C6F6FE0
:1016C8007073206469616C656420696E3A20005209
:1016D800756E6E696E672000206C6F6F70732E2EAA
:1016E8002E002E2E2E5B005D3A20230020666F729E
:1016F80020006D73002E2E2E646F6E652100436FDF
:10170800756E747320280020626C696E6B73293AB9
:101718002000203A2000252900207C20000000001D
:0E17280000A3042E063E046D0451049104003B
:00000001FF
