:100000000C9435000C945D000C945D000C945D0024
:100010000C945D000C945D000C945D000C945D00EC
:100020000C945D000C945D000C945D000C945D00DC
:100030000C945D000C945D000C945D000C945D00CC
:100040000C94C3010C945D000C9434030C94700365
:100050000C945D000C945D000C945D000C945D00AC
:100060000C945D000C945D002B0411241FBECFEF97
:10007000D8E0DEBFCDBF11E0A0E0B1E0EAE2F1E1FF
:1000800002C005900D92AE33B107D9F712E0AEE38E
:10009000B1E001C01D92AA31B107E1F710E0CAE654
:1000A000D0E004C02297FE010E948F08C836D10715
:1000B000C9F70E947B040C944D060C94000040E8A4
:1000C00055E260E070E083E791E00C94AB030F939E
:1000D0001F93CF93DF9310923F0110923E0156C0C1
:1000E000809168010E94A201CC0FDD1FCC0FDD1FA3
:1000F000C05CDE4FBC01882777FD8095982F0E9459
:10010000540720E030E040EA50E40E94080820E074
:1001100030E048EC52E40E94080820E030E040E87B
:100120005AE30E940808688379838A839B83E0915D
:100130003E01F0913F01EE0FFF1FEE0FFF1FE05C4D
:10014000FE4F208131814281538160916401709121
:10015000650180916601909167010E94510660934C
:10016000640170936501809366019093670164E672
:1001700070E080E090E00E94370280913E01909113
:100180003F01019690933F0180933E01C0913E0153
:10019000D0913F01C830D1050CF4A2CF20E030E06F
:1001A00040E05EE3609164017091650180916601B9
:1001B000909167010E9408088B01D82FC92F9E01DA
:1001C000862F912FA32FB22F809364019093650106
:1001D000A0936601B093670120E030E040E151E474
:1001E000FE01602F712F8F2F9E2F0E94080820E0A4
:1001F00030E040EA50E40E94B90620E030E040E000
:1002000052E40E94510660936001709361018093F3
:10021000620190936301609102017091030188274C
:1002200077FD8095982F0E9454079B01AC01FE0139
:10023000602F712F8F2F9E2F0E94040818165CF4D8
:100240009E01602F712F832F922F0E9421077093A0
:100250000301609302016091000170910101882700
:1002600077FD8095982F0E9454079B01AC01FE01F9
:10027000602F712F8F2F9C2F0E94B50687FF0BC018
:100280009E01602F712F832F9C2F0E942107709356
:100290000101609300012AE030E0CE01402F512F90
:1002A000692F7C2F83E791E00E944B0665E071E0A7
:1002B00083E791E00E94C004409160015091610188
:1002C00060916201709163012AE030E083E791E080
:1002D0000E944B0660E171E083E791E00E94C00458
:1002E00060910201709103014AE050E083E791E0E0
:1002F0000E949A0560E271E083E791E00E94C004E9
:1003000060910001709101014AE050E083E791E0C3
:100310000E949A0567E271E083E791E00E94DF04A2
:1003200010926401109265011092660110926701AB
:1003300068EE73E080E090E0DF91CF911F910F9124
:100340000C9437028E3008F08E5087702091040193
:1003500040E4249F90011124822B80937C008091A3
:100360007A00806480937A0080917A0086FDFCCFC9
:100370002091780030917900932F80E0AC01422BDE
:100380009A01C90108951F920F920FB60F9211247E
:100390002F933F938F939F93AF93BF9380916A0165
:1003A00090916B01A0916C01B0916D01309172013F
:1003B000232F2D5F2D3720F40196A11DB11D05C0FF
:1003C000232F2A570296A11DB11D209372018093FD
:1003D0006A0190936B01A0936C01B0936D018091C1
:1003E0006E0190916F01A0917001B0917101019621
:1003F000A11DB11D80936E0190936F01A0937001B8
:10040000B0937101BF91AF919F918F913F912F91C7
:100410000F900FBE0F901F9018950F931F939FB7CB
:10042000F89400916E0110916F012091700130914C
:10043000710186B5A89B06C08F3F21F00F5F1F4F4B
:100440002F4F3F4F9FBF322F212F102F0027080F14
:10045000111D211D311D42E0000F111F221F331FEE
:100460004A95D1F7B801C9011F910F910895CF9214
:10047000DF92EF92FF92CF93DF936B017C010E949A
:100480000D02EB010EC00E940D026C1B7D0B683E3D
:10049000734038F081E0C81AD108E108F108C8516A
:1004A000DC4FC114D104E104F10469F7DF91CF916D
:1004B000FF90EF90DF90CF900895789484B582609C
:1004C00084BD84B5816084BD85B5826085BD85B5F8
:1004D000816085BDEEE6F0E0808181608083E1E8A7
:1004E000F0E01082808182608083808181608083DF
:1004F000E0E8F0E0808181608083E1EBF0E08081E2
:1005000084608083E0EBF0E0808181608083EAE7B3
:10051000F0E080818460808380818260808380813C
:10052000816080838081806880831092C1000895FB
:10053000FC0184859585FC01E05CFF4F20813181C1
:10054000FC01EE5BFF4F80819181281B390B2F73DB
:100550003327C9010895FC0184859585FC01E05C81
:10056000FF4F40815181FC01EE5BFF4F20813181C3
:100570004217530741F00190F081E02DE80FF91F79
:10058000208130E002C02FEF3FEFC9010895FC0148
:1005900084859585FC01E05CFF4F40815181FC0121
:1005A000EE5BFF4F208131814217530781F0A0811C
:1005B000B181A80FB91F8C91208131812F5F3F4FEE
:1005C0002F73332731832083282F30E002C02FEF91
:1005D0003FEFC9010895FC0186859785FC01E05C29
:1005E000FF4FDC01AE5BBF4F408151812D913C91AB
:1005F000119742175307C1F70895CF93DF93FC017A
:1006000086859785DC01A05CBF4F2D913C911197A9
:100610002F5F3F4F2F733327EC01CE5BDF4F4881B5
:10062000598124173507D9F30D90BC91A02DA80F3F
:10063000B91F6C93A685B785A05CBF4F11963C93FC
:100640002E93A689B7892C9181E090E0058C02C099
:10065000880F991F0A94E2F7282B2C9381E090E0F1
:10066000DF91CF91089508951F920F920FB60F92C8
:1006700011242F933F934F938F939F93EF93FF9367
:100680004091C600809116029091170201968F73D7
:10069000992720911802309119028217930759F077
:1006A000E0911602F0911702EA52FE4F40839093B8
:1006B000170280931602FF91EF919F918F914F91B6
:1006C0003F912F910F900FBE0F901F90189583E7C9
:1006D00091E00E949802892B11F00C943303089545
:1006E0001F920F920FB60F9211242F933F938F9367
:1006F0009F93EF93FF932091D2013091D30180918A
:10070000D4019091D5012817390731F48091C100A7
:100710008F7D8093C10014C0E091D401F091D50188
:10072000EE56FE4F20818091D4019091D501019623
:100730008F7399279093D5018093D4012093C6009D
:10074000FF91EF919F918F913F912F910F900FBE4D
:100750000F901F901895CF92DF92EF92FF92CF9358
:10076000DF93EC016A017B01411581EE58076105B9
:100770007105F9F0EC89FD8981E090E00E8C02C0F2
:10078000880F991F0A94E2F7808360E079E08DE397
:1007900090E0A70196010E946B08215031094109A0
:1007A00051095695479537952795211580E13807CA
:1007B00098F0EC89FD89108260E874E88EE190E0A1
:1007C000A70196010E946B08215031094109510986
:1007D0005695479537952795E889F9893083EA89B1
:1007E000FB892083EE89FF89408181E090E09C01B4
:1007F0000A8C02C0220F331F0A94E2F7422B408377
:10080000EE89FF8940819C010B8C02C0220F331FAF
:100810000A94E2F7422B4083EE89FF8940819C01D4
:100820000C8C02C0220F331F0A94E2F7422B408344
:10083000EE89FF8920810D8C02C0880F991F0A94D0
:10084000E2F7809582238083DF91CF91FF90EF9034
:10085000DF90CF900895109276011092750188EE86
:1008600093E0A0E0B0E08093770190937801A093AB
:100870007901B0937A0180E391E0909374018093C1
:10088000730186ED91E09093800180937F0182E96E
:1008900091E0909382018093810185EC90E09093A8
:1008A00084018093830184EC90E09093860180938F
:1008B000850180EC90E0909388018093870181EC22
:1008C00090E090938A018093890186EC90E0909368
:1008D0008C0180938B0184E080938D0183E0809371
:1008E0008E0187E080938F0185E08093900181E005
:1008F0008093910108950E945D020E945F00C7E607
:10090000D3E00E9467002097E1F30E946703F9CFCC
:10091000CF92DF92EF92FF920F931F93CF93DF93CB
:100920006C01EB017A01E60EF71E00E010E00BC04F
:100930006991D601ED91FC910190F081E02DC60105
:100940000995080F191FCE15DF0591F7C801DF9132
:10095000CF911F910F91FF90EF90DF90CF9008956E
:10096000DB010D900020E9F7AD0141505109461B14
:10097000570BDC01ED91FC910280F381E02D09948D
:100980000C94B004DC01ED91FC910190F081E02D1C
:1009900009940F931F93CF93DF93EC016DE00E94B6
:1009A000C2048C016AE0CE010E94C2049C01200FA7
:1009B000311FC901DF91CF911F910F9108950F93BE
:1009C0001F93CF93DF93EC010E94B0048C01CE0102
:1009D0000E94C9049801280F391FC901DF91CF91E6
:1009E0001F910F9108954F925F926F927F929F9205
:1009F000AF92BF92CF92DF92EF92FF920F931F932D
:100A0000CF93DF93CDB7DEB7A1970FB6F894DEBFD3
:100A10000FBECDBF5C016A017B01922E19A281E05D
:100A2000821710F08AE0982E8E010F5D1F4F492C1F
:100A3000512C612C712CC701B601A30192010E94B7
:100A40006B088C2D929E80191124015011098A3057
:100A500014F4805D01C0895CF801808369017A012A
:100A6000C114D104E104F10431F7B801C5010E94B9
:100A7000B004A1960FB6F894DEBF0FBECDBFDF91D4
:100A8000CF911F910F91FF90EF90DF90CF90BF908B
:100A9000AF909F907F906F905F904F900895CF920E
:100AA000DF92EF92FF920F931F93CF93DF93EC01AE
:100AB0006A017B012115310579F4E881F981019002
:100AC000F081E02D642FDF91CF911F910F91FF9066
:100AD000EF90DF90CF9009942A30310519F477FD1B
:100AE0000EC02AE0B701A601CE01DF91CF911F9180
:100AF0000F91FF90EF90DF90CF900C94F3046DE294
:100B00000E94C2048C0144275527BA014C195D0983
:100B10006E097F092AE0CE010E94F304080F191F15
:100B2000C801DF91CF911F910F91FF90EF90DF905F
:100B3000CF9008959A01AB01662757FD6095762FF7
:100B40000C944F057F928F929F92AF92BF92CF925B
:100B5000DF92EF92FF920F931F93CF93DF938C015D
:100B60004A015B01F22E20E030E0A901C501B40189
:100B70000E94B50687FF0AC06DE2C8010E94C20448
:100B8000EC01B7FAB094B7F8B09402C0C0E0D0E07E
:100B9000E12C60E070E080E09FE307C020E030E0FF
:100BA00040E251E40E94B906E394EF10F7CF262FFC
:100BB000372F482F592FC501B4010E945106762EB8
:100BC000872E982EA92E0E942607B62EC72ED82E25
:100BD000E92E0E9452079B01AC01672D782D892DCB
:100BE0009A2D0E945006A62E972E882E792E2AE046
:100BF0004B2D5C2D6D2D7E2DC8010E94F304C80F76
:100C0000D91FFF20B9F16CE371E0C8010E94B00464
:100C1000C80FD91F2FC020E030E040E251E46A2D18
:100C2000792D882D972D0E940808762EC72ED82E54
:100C3000E92E0E9421074B01AA2497FCA094BA2C0C
:100C40002AE030E0B501A401C8010E944F05C80F99
:100C5000D91FC501B4010E9454079B01AC01672D47
:100C60007C2D8D2D9E2D0E945006A62E972E882E0F
:100C7000792EFA94F110CFCFCE01DF91CF911F9151
:100C80000F91FF90EF90DF90CF90BF90AF909F902B
:100C90008F907F9008950C94A205F8940C9493087B
:100CA0005058BB27AA270ED075C166D130F06BD142
:100CB00020F031F49F3F11F41EF45BC10EF4E09577
:100CC000E7FB51C1E92F77D180F3BA1762077307A9
:100CD0008407950718F071F49EF58FC10EF4E09526
:100CE0000B2EBA2FA02D0B01B90190010C01CA01E6
:100CF000A0011124FF27591B99F0593F50F4503E91
:100D000068F11A16F040A22F232F342F4427585F82
:100D1000F3CF469537952795A795F0405395C9F79A
:100D20007EF41F16BA0B620B730B840BBAF0915052
:100D3000A1F0FF0FBB1F661F771F881FC2F70EC0F1
:100D4000BA0F621F731F841F48F4879577956795C4
:100D5000B795F7959E3F08F0B3CF9395880F08F0AD
:100D60009927EE0F979587950895D9D008F481E0DB
:100D700008950CD00FC107D140F0FED030F021F41F
:100D80005F3F19F0F0C0511139C1F3C014D198F38D
:100D90009923C9F35523B1F3951B550BBB27AA27FC
:100DA00062177307840738F09F5F5F4F220F331F6E
:100DB000441FAA1FA9F333D00E2E3AF0E0E830D03A
:100DC00091505040E695001CCAF729D0FE2F27D03D
:100DD000660F771F881FBB1F261737074807AB070B
:100DE000B0E809F0BB0B802DBF01FF2793585F4F80
:100DF0002AF09E3F510568F0B6C000C15F3FECF39A
:100E0000983EDCF3869577956795B795F7959F5F44
:100E1000C9F7880F911D9695879597F90895E1E098
:100E2000660F771F881FBB1F621773078407BA07F7
:100E300020F0621B730B840BBA0BEE1F88F7E09552
:100E4000089504D06894B111D9C00895BCD088F039
:100E50009F5790F0B92F9927B751A0F0D1F0660FA6
:100E6000771F881F991F1AF0BA95C9F712C0B130C1
:100E700081F0C3D0B1E00895C0C0672F782F8827D4
:100E8000B85F39F0B93FCCF3869577956795B39500
:100E9000D9F73EF490958095709561957F4F8F4F6F
:100EA0009F4F0895E89409C097FB3EF49095809574
:100EB000709561957F4F8F4F9F4F9923A9F0F92F20
:100EC00096E9BB279395F695879577956795B7959E
:100ED000F111F8CFFAF4BB0F11F460FF1BC06F5F84
:100EE0007F4F8F4F9F4F16C0882311F096E911C096
:100EF000772321F09EE8872F762F05C0662371F0B7
:100F000096E8862F70E060E02AF09A95660F771FCA
:100F1000881FDAF7880F9695879597F90895990FA6
:100F20000008550FAA0BE0E8FEEF16161706E807B3
:100F3000F907C0F012161306E407F50798F0621BD4
:100F4000730B840B950B39F40A2661F0232B242BA9
:100F5000252B21F408950A2609F4A140A6958FEFC8
:100F6000811D811D089597F99F6780E870E060E01A
:100F700008959FEF80EC089500240A941616170632
:100F800018060906089500240A941216130614067A
:100F900005060895092E0394000C11F4882352F0DD
:100FA000BB0F40F4BF2B11F460FF04C06F5F7F4F95
:100FB0008F4F9F4F089557FD9058440F551F59F07C
:100FC0005F3F71F04795880F97FB991F61F09F3F36
:100FD00079F087950895121613061406551FF2CF5F
:100FE0004695F1DF08C0161617061806991FF1CFAF
:100FF00086957105610508940895E894BB276627D6
:101000007727CB0197F908958ADF08F48FEF0895C9
:101010000BD0C0CFB1DF28F0B6DF18F0952309F070
:10102000A2CFA7CF1124EACFC6DFA0F3959FD1F3BB
:10103000950F50E0551F629FF001729FBB27F00D86
:10104000B11D639FAA27F00DB11DAA1F649F6627DB
:10105000B00DA11D661F829F2227B00DA11D621F2A
:10106000739FB00DA11D621F839FA00D611D221FE4
:10107000749F3327A00D611D231F849F600D211DC8
:10108000822F762F6A2F11249F5750408AF0E1F06B
:1010900088234AF0EE0FFF1FBB1F661F771F881FB4
:1010A00091505040A9F79E3F510570F05CCFA6CFFC
:1010B0005F3FECF3983EDCF3869577956795B7959F
:1010C000F795E7959F5FC1F7FE2B880F911D9695C9
:1010D000879597F90895A1E21A2EAA1BBB1BFD0163
:1010E0000DC0AA1FBB1FEE1FFF1FA217B307E40707
:1010F000F50720F0A21BB30BE40BF50B661F771F5F
:10110000881F991F1A9469F760957095809590953E
:101110009B01AC01BD01CF010895EE0FFF1F0590AB
:0A112000F491E02D0994F894FFCF3C
:10112A0064009CFF012043656C736975732C200071
:10113A002066616872656E68656974202D3E2000BC
:10114A00204D61782C2000204D696E0000000000BF
:0E115A00FD0288049802C702AB02EB022E00D1
:00000001FF
